{
	"contracts/FirstTransfer.sol": {
		"FirstApproach": {
			"abi": [
				{
					"inputs": [],
					"name": "getBalance",
					"outputs": [
						{
							"internalType": "uint256",
							"name": "",
							"type": "uint256"
						}
					],
					"stateMutability": "view",
					"type": "function"
				},
				{
					"inputs": [],
					"name": "getTimesSent",
					"outputs": [
						{
							"internalType": "uint256",
							"name": "",
							"type": "uint256"
						}
					],
					"stateMutability": "view",
					"type": "function"
				},
				{
					"inputs": [],
					"name": "getTotalBalance",
					"outputs": [
						{
							"internalType": "uint256",
							"name": "",
							"type": "uint256"
						}
					],
					"stateMutability": "view",
					"type": "function"
				},
				{
					"inputs": [],
					"name": "getTotalSent",
					"outputs": [
						{
							"internalType": "uint256",
							"name": "",
							"type": "uint256"
						}
					],
					"stateMutability": "view",
					"type": "function"
				},
				{
					"inputs": [
						{
							"internalType": "address payable",
							"name": "_to",
							"type": "address"
						},
						{
							"internalType": "uint256",
							"name": "_amount",
							"type": "uint256"
						}
					],
					"name": "withdraw",
					"outputs": [],
					"stateMutability": "nonpayable",
					"type": "function"
				},
				{
					"stateMutability": "payable",
					"type": "receive"
				}
			],
			"devdoc": {
				"kind": "dev",
				"methods": {},
				"version": 1
			},
			"evm": {
				"assembly": "    /* \"contracts/FirstTransfer.sol\":60:1091  contract FirstApproach{... */\n  mstore(0x40, 0x80)\n  callvalue\n  dup1\n  iszero\n  tag_1\n  jumpi\n  0x00\n  dup1\n  revert\ntag_1:\n  pop\n  dataSize(sub_0)\n  dup1\n  dataOffset(sub_0)\n  0x00\n  codecopy\n  0x00\n  return\nstop\n\nsub_0: assembly {\n        /* \"contracts/FirstTransfer.sol\":60:1091  contract FirstApproach{... */\n      mstore(0x40, 0x80)\n      jumpi(tag_1, lt(calldatasize, 0x04))\n      shr(0xe0, calldataload(0x00))\n      dup1\n      0x12065fe0\n      eq\n      tag_3\n      jumpi\n      dup1\n      0x12b58349\n      eq\n      tag_4\n      jumpi\n      dup1\n      0x518d3b64\n      eq\n      tag_5\n      jumpi\n      dup1\n      0xce2fc194\n      eq\n      tag_6\n      jumpi\n      dup1\n      0xf3fef3a3\n      eq\n      tag_7\n      jumpi\n      jump(tag_2)\n    tag_1:\n      jumpi(tag_2, calldatasize)\n        /* \"contracts/FirstTransfer.sol\":638:647  msg.value */\n      callvalue\n        /* \"contracts/FirstTransfer.sol\":607:614  Wallets */\n      0x00\n        /* \"contracts/FirstTransfer.sol\":607:626  Wallets[msg.sender] */\n      dup1\n        /* \"contracts/FirstTransfer.sol\":615:625  msg.sender */\n      caller\n        /* \"contracts/FirstTransfer.sol\":607:626  Wallets[msg.sender] */\n      0xffffffffffffffffffffffffffffffffffffffff\n      and\n      0xffffffffffffffffffffffffffffffffffffffff\n      and\n      dup2\n      mstore\n      0x20\n      add\n      swap1\n      dup2\n      mstore\n      0x20\n      add\n      0x00\n      keccak256\n        /* \"contracts/FirstTransfer.sol\":607:634  Wallets[msg.sender].balance */\n      0x00\n      add\n      0x00\n        /* \"contracts/FirstTransfer.sol\":607:647  Wallets[msg.sender].balance += msg.value */\n      dup3\n      dup3\n      sload\n      tag_10\n      swap2\n      swap1\n      tag_11\n      jump\t// in\n    tag_10:\n      swap3\n      pop\n      pop\n      dup2\n      swap1\n      sstore\n      pop\n        /* \"contracts/FirstTransfer.sol\":691:692  1 */\n      0x01\n        /* \"contracts/FirstTransfer.sol\":658:665  Wallets */\n      0x00\n        /* \"contracts/FirstTransfer.sol\":658:677  Wallets[msg.sender] */\n      dup1\n        /* \"contracts/FirstTransfer.sol\":666:676  msg.sender */\n      caller\n        /* \"contracts/FirstTransfer.sol\":658:677  Wallets[msg.sender] */\n      0xffffffffffffffffffffffffffffffffffffffff\n      and\n      0xffffffffffffffffffffffffffffffffffffffff\n      and\n      dup2\n      mstore\n      0x20\n      add\n      swap1\n      dup2\n      mstore\n      0x20\n      add\n      0x00\n      keccak256\n        /* \"contracts/FirstTransfer.sol\":658:687  Wallets[msg.sender].timesSent */\n      0x01\n      add\n      0x00\n        /* \"contracts/FirstTransfer.sol\":658:692  Wallets[msg.sender].timesSent += 1 */\n      dup3\n      dup3\n      sload\n      tag_12\n      swap2\n      swap1\n      tag_11\n      jump\t// in\n    tag_12:\n      swap3\n      pop\n      pop\n      dup2\n      swap1\n      sstore\n      pop\n        /* \"contracts/FirstTransfer.sol\":736:745  msg.value */\n      callvalue\n        /* \"contracts/FirstTransfer.sol\":703:710  Wallets */\n      0x00\n        /* \"contracts/FirstTransfer.sol\":703:722  Wallets[msg.sender] */\n      dup1\n        /* \"contracts/FirstTransfer.sol\":711:721  msg.sender */\n      caller\n        /* \"contracts/FirstTransfer.sol\":703:722  Wallets[msg.sender] */\n      0xffffffffffffffffffffffffffffffffffffffff\n      and\n      0xffffffffffffffffffffffffffffffffffffffff\n      and\n      dup2\n      mstore\n      0x20\n      add\n      swap1\n      dup2\n      mstore\n      0x20\n      add\n      0x00\n      keccak256\n        /* \"contracts/FirstTransfer.sol\":703:732  Wallets[msg.sender].totalSent */\n      0x02\n      add\n      0x00\n        /* \"contracts/FirstTransfer.sol\":703:745  Wallets[msg.sender].totalSent += msg.value */\n      dup3\n      dup3\n      sload\n      tag_13\n      swap2\n      swap1\n      tag_11\n      jump\t// in\n    tag_13:\n      swap3\n      pop\n      pop\n      dup2\n      swap1\n      sstore\n      stop\n        /* \"contracts/FirstTransfer.sol\":60:1091  contract FirstApproach{... */\n    tag_2:\n      0x00\n      dup1\n      revert\n        /* \"contracts/FirstTransfer.sol\":237:337  function getBalance() public view returns(uint){... */\n    tag_3:\n      callvalue\n      dup1\n      iszero\n      tag_14\n      jumpi\n      0x00\n      dup1\n      revert\n    tag_14:\n      pop\n      tag_15\n      tag_16\n      jump\t// in\n    tag_15:\n      mload(0x40)\n      tag_17\n      swap2\n      swap1\n      tag_18\n      jump\t// in\n    tag_17:\n      mload(0x40)\n      dup1\n      swap2\n      sub\n      swap1\n      return\n        /* \"contracts/FirstTransfer.sol\":988:1088  function getTotalBalance() public view returns (uint){... */\n    tag_4:\n      callvalue\n      dup1\n      iszero\n      tag_19\n      jumpi\n      0x00\n      dup1\n      revert\n    tag_19:\n      pop\n      tag_20\n      tag_21\n      jump\t// in\n    tag_20:\n      mload(0x40)\n      tag_22\n      swap2\n      swap1\n      tag_18\n      jump\t// in\n    tag_22:\n      mload(0x40)\n      dup1\n      swap2\n      sub\n      swap1\n      return\n        /* \"contracts/FirstTransfer.sol\":457:561  function getTotalSent() public view returns(uint){... */\n    tag_5:\n      callvalue\n      dup1\n      iszero\n      tag_23\n      jumpi\n      0x00\n      dup1\n      revert\n    tag_23:\n      pop\n      tag_24\n      tag_25\n      jump\t// in\n    tag_24:\n      mload(0x40)\n      tag_26\n      swap2\n      swap1\n      tag_18\n      jump\t// in\n    tag_26:\n      mload(0x40)\n      dup1\n      swap2\n      sub\n      swap1\n      return\n        /* \"contracts/FirstTransfer.sol\":345:449  function getTimesSent() public view returns(uint){... */\n    tag_6:\n      callvalue\n      dup1\n      iszero\n      tag_27\n      jumpi\n      0x00\n      dup1\n      revert\n    tag_27:\n      pop\n      tag_28\n      tag_29\n      jump\t// in\n    tag_28:\n      mload(0x40)\n      tag_30\n      swap2\n      swap1\n      tag_18\n      jump\t// in\n    tag_30:\n      mload(0x40)\n      dup1\n      swap2\n      sub\n      swap1\n      return\n        /* \"contracts/FirstTransfer.sol\":761:980  function withdraw(address payable _to, uint _amount) public {... */\n    tag_7:\n      callvalue\n      dup1\n      iszero\n      tag_31\n      jumpi\n      0x00\n      dup1\n      revert\n    tag_31:\n      pop\n      tag_32\n      0x04\n      dup1\n      calldatasize\n      sub\n      dup2\n      add\n      swap1\n      tag_33\n      swap2\n      swap1\n      tag_34\n      jump\t// in\n    tag_33:\n      tag_35\n      jump\t// in\n    tag_32:\n      stop\n        /* \"contracts/FirstTransfer.sol\":237:337  function getBalance() public view returns(uint){... */\n    tag_16:\n        /* \"contracts/FirstTransfer.sol\":279:283  uint */\n      0x00\n        /* \"contracts/FirstTransfer.sol\":302:309  Wallets */\n      dup1\n        /* \"contracts/FirstTransfer.sol\":302:321  Wallets[msg.sender] */\n      0x00\n        /* \"contracts/FirstTransfer.sol\":310:320  msg.sender */\n      caller\n        /* \"contracts/FirstTransfer.sol\":302:321  Wallets[msg.sender] */\n      0xffffffffffffffffffffffffffffffffffffffff\n      and\n      0xffffffffffffffffffffffffffffffffffffffff\n      and\n      dup2\n      mstore\n      0x20\n      add\n      swap1\n      dup2\n      mstore\n      0x20\n      add\n      0x00\n      keccak256\n        /* \"contracts/FirstTransfer.sol\":302:329  Wallets[msg.sender].balance */\n      0x00\n      add\n      sload\n        /* \"contracts/FirstTransfer.sol\":295:329  return Wallets[msg.sender].balance */\n      swap1\n      pop\n        /* \"contracts/FirstTransfer.sol\":237:337  function getBalance() public view returns(uint){... */\n      swap1\n      jump\t// out\n        /* \"contracts/FirstTransfer.sol\":988:1088  function getTotalBalance() public view returns (uint){... */\n    tag_21:\n        /* \"contracts/FirstTransfer.sol\":1036:1040  uint */\n      0x00\n        /* \"contracts/FirstTransfer.sol\":1059:1080  address(this).balance */\n      selfbalance\n        /* \"contracts/FirstTransfer.sol\":1052:1080  return address(this).balance */\n      swap1\n      pop\n        /* \"contracts/FirstTransfer.sol\":988:1088  function getTotalBalance() public view returns (uint){... */\n      swap1\n      jump\t// out\n        /* \"contracts/FirstTransfer.sol\":457:561  function getTotalSent() public view returns(uint){... */\n    tag_25:\n        /* \"contracts/FirstTransfer.sol\":501:505  uint */\n      0x00\n        /* \"contracts/FirstTransfer.sol\":524:531  Wallets */\n      dup1\n        /* \"contracts/FirstTransfer.sol\":524:543  Wallets[msg.sender] */\n      0x00\n        /* \"contracts/FirstTransfer.sol\":532:542  msg.sender */\n      caller\n        /* \"contracts/FirstTransfer.sol\":524:543  Wallets[msg.sender] */\n      0xffffffffffffffffffffffffffffffffffffffff\n      and\n      0xffffffffffffffffffffffffffffffffffffffff\n      and\n      dup2\n      mstore\n      0x20\n      add\n      swap1\n      dup2\n      mstore\n      0x20\n      add\n      0x00\n      keccak256\n        /* \"contracts/FirstTransfer.sol\":524:553  Wallets[msg.sender].totalSent */\n      0x02\n      add\n      sload\n        /* \"contracts/FirstTransfer.sol\":517:553  return Wallets[msg.sender].totalSent */\n      swap1\n      pop\n        /* \"contracts/FirstTransfer.sol\":457:561  function getTotalSent() public view returns(uint){... */\n      swap1\n      jump\t// out\n        /* \"contracts/FirstTransfer.sol\":345:449  function getTimesSent() public view returns(uint){... */\n    tag_29:\n        /* \"contracts/FirstTransfer.sol\":389:393  uint */\n      0x00\n        /* \"contracts/FirstTransfer.sol\":412:419  Wallets */\n      dup1\n        /* \"contracts/FirstTransfer.sol\":412:431  Wallets[msg.sender] */\n      0x00\n        /* \"contracts/FirstTransfer.sol\":420:430  msg.sender */\n      caller\n        /* \"contracts/FirstTransfer.sol\":412:431  Wallets[msg.sender] */\n      0xffffffffffffffffffffffffffffffffffffffff\n      and\n      0xffffffffffffffffffffffffffffffffffffffff\n      and\n      dup2\n      mstore\n      0x20\n      add\n      swap1\n      dup2\n      mstore\n      0x20\n      add\n      0x00\n      keccak256\n        /* \"contracts/FirstTransfer.sol\":412:441  Wallets[msg.sender].timesSent */\n      0x01\n      add\n      sload\n        /* \"contracts/FirstTransfer.sol\":405:441  return Wallets[msg.sender].timesSent */\n      swap1\n      pop\n        /* \"contracts/FirstTransfer.sol\":345:449  function getTimesSent() public view returns(uint){... */\n      swap1\n      jump\t// out\n        /* \"contracts/FirstTransfer.sol\":761:980  function withdraw(address payable _to, uint _amount) public {... */\n    tag_35:\n        /* \"contracts/FirstTransfer.sol\":866:873  _amount */\n      dup1\n        /* \"contracts/FirstTransfer.sol\":835:842  Wallets */\n      0x00\n        /* \"contracts/FirstTransfer.sol\":835:854  Wallets[msg.sender] */\n      dup1\n        /* \"contracts/FirstTransfer.sol\":843:853  msg.sender */\n      caller\n        /* \"contracts/FirstTransfer.sol\":835:854  Wallets[msg.sender] */\n      0xffffffffffffffffffffffffffffffffffffffff\n      and\n      0xffffffffffffffffffffffffffffffffffffffff\n      and\n      dup2\n      mstore\n      0x20\n      add\n      swap1\n      dup2\n      mstore\n      0x20\n      add\n      0x00\n      keccak256\n        /* \"contracts/FirstTransfer.sol\":835:862  Wallets[msg.sender].balance */\n      0x00\n      add\n      sload\n        /* \"contracts/FirstTransfer.sol\":835:873  Wallets[msg.sender].balance >= _amount */\n      lt\n        /* \"contracts/FirstTransfer.sol\":832:973  if(Wallets[msg.sender].balance >= _amount){... */\n      tag_41\n      jumpi\n        /* \"contracts/FirstTransfer.sol\":918:925  _amount */\n      dup1\n        /* \"contracts/FirstTransfer.sol\":889:896  Wallets */\n      0x00\n        /* \"contracts/FirstTransfer.sol\":889:908  Wallets[msg.sender] */\n      dup1\n        /* \"contracts/FirstTransfer.sol\":897:907  msg.sender */\n      caller\n        /* \"contracts/FirstTransfer.sol\":889:908  Wallets[msg.sender] */\n      0xffffffffffffffffffffffffffffffffffffffff\n      and\n      0xffffffffffffffffffffffffffffffffffffffff\n      and\n      dup2\n      mstore\n      0x20\n      add\n      swap1\n      dup2\n      mstore\n      0x20\n      add\n      0x00\n      keccak256\n        /* \"contracts/FirstTransfer.sol\":889:916  Wallets[msg.sender].balance */\n      0x00\n      add\n      0x00\n        /* \"contracts/FirstTransfer.sol\":889:925  Wallets[msg.sender].balance-=_amount */\n      dup3\n      dup3\n      sload\n      tag_42\n      swap2\n      swap1\n      tag_43\n      jump\t// in\n    tag_42:\n      swap3\n      pop\n      pop\n      dup2\n      swap1\n      sstore\n      pop\n        /* \"contracts/FirstTransfer.sol\":940:943  _to */\n      dup2\n        /* \"contracts/FirstTransfer.sol\":940:952  _to.transfer */\n      0xffffffffffffffffffffffffffffffffffffffff\n      and\n        /* \"contracts/FirstTransfer.sol\":940:961  _to.transfer(_amount) */\n      0x08fc\n        /* \"contracts/FirstTransfer.sol\":953:960  _amount */\n      dup3\n        /* \"contracts/FirstTransfer.sol\":940:961  _to.transfer(_amount) */\n      swap1\n      dup2\n      iszero\n      mul\n      swap1\n      mload(0x40)\n      0x00\n      mload(0x40)\n      dup1\n      dup4\n      sub\n      dup2\n      dup6\n      dup9\n      dup9\n      call\n      swap4\n      pop\n      pop\n      pop\n      pop\n      iszero\n      dup1\n      iszero\n      tag_45\n      jumpi\n      returndatasize\n      0x00\n      dup1\n      returndatacopy\n      revert(0x00, returndatasize)\n    tag_45:\n      pop\n        /* \"contracts/FirstTransfer.sol\":832:973  if(Wallets[msg.sender].balance >= _amount){... */\n    tag_41:\n        /* \"contracts/FirstTransfer.sol\":761:980  function withdraw(address payable _to, uint _amount) public {... */\n      pop\n      pop\n      jump\t// out\n        /* \"#utility.yul\":7:84   */\n    tag_46:\n        /* \"#utility.yul\":44:51   */\n      0x00\n        /* \"#utility.yul\":73:78   */\n      dup2\n        /* \"#utility.yul\":62:78   */\n      swap1\n      pop\n        /* \"#utility.yul\":7:84   */\n      swap2\n      swap1\n      pop\n      jump\t// out\n        /* \"#utility.yul\":90:270   */\n    tag_47:\n        /* \"#utility.yul\":138:215   */\n      0x4e487b7100000000000000000000000000000000000000000000000000000000\n        /* \"#utility.yul\":135:136   */\n      0x00\n        /* \"#utility.yul\":128:216   */\n      mstore\n        /* \"#utility.yul\":235:239   */\n      0x11\n        /* \"#utility.yul\":232:233   */\n      0x04\n        /* \"#utility.yul\":225:240   */\n      mstore\n        /* \"#utility.yul\":259:263   */\n      0x24\n        /* \"#utility.yul\":256:257   */\n      0x00\n        /* \"#utility.yul\":249:264   */\n      revert\n        /* \"#utility.yul\":276:467   */\n    tag_11:\n        /* \"#utility.yul\":316:319   */\n      0x00\n        /* \"#utility.yul\":335:355   */\n      tag_62\n        /* \"#utility.yul\":353:354   */\n      dup3\n        /* \"#utility.yul\":335:355   */\n      tag_46\n      jump\t// in\n    tag_62:\n        /* \"#utility.yul\":330:355   */\n      swap2\n      pop\n        /* \"#utility.yul\":369:389   */\n      tag_63\n        /* \"#utility.yul\":387:388   */\n      dup4\n        /* \"#utility.yul\":369:389   */\n      tag_46\n      jump\t// in\n    tag_63:\n        /* \"#utility.yul\":364:389   */\n      swap3\n      pop\n        /* \"#utility.yul\":412:413   */\n      dup3\n        /* \"#utility.yul\":409:410   */\n      dup3\n        /* \"#utility.yul\":405:414   */\n      add\n        /* \"#utility.yul\":398:414   */\n      swap1\n      pop\n        /* \"#utility.yul\":433:436   */\n      dup1\n        /* \"#utility.yul\":430:431   */\n      dup3\n        /* \"#utility.yul\":427:437   */\n      gt\n        /* \"#utility.yul\":424:460   */\n      iszero\n      tag_64\n      jumpi\n        /* \"#utility.yul\":440:458   */\n      tag_65\n      tag_47\n      jump\t// in\n    tag_65:\n        /* \"#utility.yul\":424:460   */\n    tag_64:\n        /* \"#utility.yul\":276:467   */\n      swap3\n      swap2\n      pop\n      pop\n      jump\t// out\n        /* \"#utility.yul\":473:591   */\n    tag_48:\n        /* \"#utility.yul\":560:584   */\n      tag_67\n        /* \"#utility.yul\":578:583   */\n      dup2\n        /* \"#utility.yul\":560:584   */\n      tag_46\n      jump\t// in\n    tag_67:\n        /* \"#utility.yul\":555:558   */\n      dup3\n        /* \"#utility.yul\":548:585   */\n      mstore\n        /* \"#utility.yul\":473:591   */\n      pop\n      pop\n      jump\t// out\n        /* \"#utility.yul\":597:819   */\n    tag_18:\n        /* \"#utility.yul\":690:694   */\n      0x00\n        /* \"#utility.yul\":728:730   */\n      0x20\n        /* \"#utility.yul\":717:726   */\n      dup3\n        /* \"#utility.yul\":713:731   */\n      add\n        /* \"#utility.yul\":705:731   */\n      swap1\n      pop\n        /* \"#utility.yul\":741:812   */\n      tag_69\n        /* \"#utility.yul\":809:810   */\n      0x00\n        /* \"#utility.yul\":798:807   */\n      dup4\n        /* \"#utility.yul\":794:811   */\n      add\n        /* \"#utility.yul\":785:791   */\n      dup5\n        /* \"#utility.yul\":741:812   */\n      tag_48\n      jump\t// in\n    tag_69:\n        /* \"#utility.yul\":597:819   */\n      swap3\n      swap2\n      pop\n      pop\n      jump\t// out\n        /* \"#utility.yul\":906:1023   */\n    tag_50:\n        /* \"#utility.yul\":1015:1016   */\n      0x00\n        /* \"#utility.yul\":1012:1013   */\n      dup1\n        /* \"#utility.yul\":1005:1017   */\n      revert\n        /* \"#utility.yul\":1152:1278   */\n    tag_52:\n        /* \"#utility.yul\":1189:1196   */\n      0x00\n        /* \"#utility.yul\":1229:1271   */\n      0xffffffffffffffffffffffffffffffffffffffff\n        /* \"#utility.yul\":1222:1227   */\n      dup3\n        /* \"#utility.yul\":1218:1272   */\n      and\n        /* \"#utility.yul\":1207:1272   */\n      swap1\n      pop\n        /* \"#utility.yul\":1152:1278   */\n      swap2\n      swap1\n      pop\n      jump\t// out\n        /* \"#utility.yul\":1284:1388   */\n    tag_53:\n        /* \"#utility.yul\":1329:1336   */\n      0x00\n        /* \"#utility.yul\":1358:1382   */\n      tag_75\n        /* \"#utility.yul\":1376:1381   */\n      dup3\n        /* \"#utility.yul\":1358:1382   */\n      tag_52\n      jump\t// in\n    tag_75:\n        /* \"#utility.yul\":1347:1382   */\n      swap1\n      pop\n        /* \"#utility.yul\":1284:1388   */\n      swap2\n      swap1\n      pop\n      jump\t// out\n        /* \"#utility.yul\":1394:1532   */\n    tag_54:\n        /* \"#utility.yul\":1475:1507   */\n      tag_77\n        /* \"#utility.yul\":1501:1506   */\n      dup2\n        /* \"#utility.yul\":1475:1507   */\n      tag_53\n      jump\t// in\n    tag_77:\n        /* \"#utility.yul\":1468:1473   */\n      dup2\n        /* \"#utility.yul\":1465:1508   */\n      eq\n        /* \"#utility.yul\":1455:1526   */\n      tag_78\n      jumpi\n        /* \"#utility.yul\":1522:1523   */\n      0x00\n        /* \"#utility.yul\":1519:1520   */\n      dup1\n        /* \"#utility.yul\":1512:1524   */\n      revert\n        /* \"#utility.yul\":1455:1526   */\n    tag_78:\n        /* \"#utility.yul\":1394:1532   */\n      pop\n      jump\t// out\n        /* \"#utility.yul\":1538:1693   */\n    tag_55:\n        /* \"#utility.yul\":1592:1597   */\n      0x00\n        /* \"#utility.yul\":1630:1636   */\n      dup2\n        /* \"#utility.yul\":1617:1637   */\n      calldataload\n        /* \"#utility.yul\":1608:1637   */\n      swap1\n      pop\n        /* \"#utility.yul\":1646:1687   */\n      tag_80\n        /* \"#utility.yul\":1681:1686   */\n      dup2\n        /* \"#utility.yul\":1646:1687   */\n      tag_54\n      jump\t// in\n    tag_80:\n        /* \"#utility.yul\":1538:1693   */\n      swap3\n      swap2\n      pop\n      pop\n      jump\t// out\n        /* \"#utility.yul\":1699:1821   */\n    tag_56:\n        /* \"#utility.yul\":1772:1796   */\n      tag_82\n        /* \"#utility.yul\":1790:1795   */\n      dup2\n        /* \"#utility.yul\":1772:1796   */\n      tag_46\n      jump\t// in\n    tag_82:\n        /* \"#utility.yul\":1765:1770   */\n      dup2\n        /* \"#utility.yul\":1762:1797   */\n      eq\n        /* \"#utility.yul\":1752:1815   */\n      tag_83\n      jumpi\n        /* \"#utility.yul\":1811:1812   */\n      0x00\n        /* \"#utility.yul\":1808:1809   */\n      dup1\n        /* \"#utility.yul\":1801:1813   */\n      revert\n        /* \"#utility.yul\":1752:1815   */\n    tag_83:\n        /* \"#utility.yul\":1699:1821   */\n      pop\n      jump\t// out\n        /* \"#utility.yul\":1827:1966   */\n    tag_57:\n        /* \"#utility.yul\":1873:1878   */\n      0x00\n        /* \"#utility.yul\":1911:1917   */\n      dup2\n        /* \"#utility.yul\":1898:1918   */\n      calldataload\n        /* \"#utility.yul\":1889:1918   */\n      swap1\n      pop\n        /* \"#utility.yul\":1927:1960   */\n      tag_85\n        /* \"#utility.yul\":1954:1959   */\n      dup2\n        /* \"#utility.yul\":1927:1960   */\n      tag_56\n      jump\t// in\n    tag_85:\n        /* \"#utility.yul\":1827:1966   */\n      swap3\n      swap2\n      pop\n      pop\n      jump\t// out\n        /* \"#utility.yul\":1972:2462   */\n    tag_34:\n        /* \"#utility.yul\":2048:2054   */\n      0x00\n        /* \"#utility.yul\":2056:2062   */\n      dup1\n        /* \"#utility.yul\":2105:2107   */\n      0x40\n        /* \"#utility.yul\":2093:2102   */\n      dup4\n        /* \"#utility.yul\":2084:2091   */\n      dup6\n        /* \"#utility.yul\":2080:2103   */\n      sub\n        /* \"#utility.yul\":2076:2108   */\n      slt\n        /* \"#utility.yul\":2073:2192   */\n      iszero\n      tag_87\n      jumpi\n        /* \"#utility.yul\":2111:2190   */\n      tag_88\n      tag_50\n      jump\t// in\n    tag_88:\n        /* \"#utility.yul\":2073:2192   */\n    tag_87:\n        /* \"#utility.yul\":2231:2232   */\n      0x00\n        /* \"#utility.yul\":2256:2317   */\n      tag_89\n        /* \"#utility.yul\":2309:2316   */\n      dup6\n        /* \"#utility.yul\":2300:2306   */\n      dup3\n        /* \"#utility.yul\":2289:2298   */\n      dup7\n        /* \"#utility.yul\":2285:2307   */\n      add\n        /* \"#utility.yul\":2256:2317   */\n      tag_55\n      jump\t// in\n    tag_89:\n        /* \"#utility.yul\":2246:2317   */\n      swap3\n      pop\n        /* \"#utility.yul\":2202:2327   */\n      pop\n        /* \"#utility.yul\":2366:2368   */\n      0x20\n        /* \"#utility.yul\":2392:2445   */\n      tag_90\n        /* \"#utility.yul\":2437:2444   */\n      dup6\n        /* \"#utility.yul\":2428:2434   */\n      dup3\n        /* \"#utility.yul\":2417:2426   */\n      dup7\n        /* \"#utility.yul\":2413:2435   */\n      add\n        /* \"#utility.yul\":2392:2445   */\n      tag_57\n      jump\t// in\n    tag_90:\n        /* \"#utility.yul\":2382:2445   */\n      swap2\n      pop\n        /* \"#utility.yul\":2337:2455   */\n      pop\n        /* \"#utility.yul\":1972:2462   */\n      swap3\n      pop\n      swap3\n      swap1\n      pop\n      jump\t// out\n        /* \"#utility.yul\":2468:2662   */\n    tag_43:\n        /* \"#utility.yul\":2508:2512   */\n      0x00\n        /* \"#utility.yul\":2528:2548   */\n      tag_92\n        /* \"#utility.yul\":2546:2547   */\n      dup3\n        /* \"#utility.yul\":2528:2548   */\n      tag_46\n      jump\t// in\n    tag_92:\n        /* \"#utility.yul\":2523:2548   */\n      swap2\n      pop\n        /* \"#utility.yul\":2562:2582   */\n      tag_93\n        /* \"#utility.yul\":2580:2581   */\n      dup4\n        /* \"#utility.yul\":2562:2582   */\n      tag_46\n      jump\t// in\n    tag_93:\n        /* \"#utility.yul\":2557:2582   */\n      swap3\n      pop\n        /* \"#utility.yul\":2606:2607   */\n      dup3\n        /* \"#utility.yul\":2603:2604   */\n      dup3\n        /* \"#utility.yul\":2599:2608   */\n      sub\n        /* \"#utility.yul\":2591:2608   */\n      swap1\n      pop\n        /* \"#utility.yul\":2630:2631   */\n      dup2\n        /* \"#utility.yul\":2624:2628   */\n      dup2\n        /* \"#utility.yul\":2621:2632   */\n      gt\n        /* \"#utility.yul\":2618:2655   */\n      iszero\n      tag_94\n      jumpi\n        /* \"#utility.yul\":2635:2653   */\n      tag_95\n      tag_47\n      jump\t// in\n    tag_95:\n        /* \"#utility.yul\":2618:2655   */\n    tag_94:\n        /* \"#utility.yul\":2468:2662   */\n      swap3\n      swap2\n      pop\n      pop\n      jump\t// out\n\n    auxdata: 0xa2646970667358221220f2046a3a81f62f19583e53f92e312ef27939d49e8c1c1ca559d962086e1b908d64736f6c63430008150033\n}\n",
				"bytecode": {
					"linkReferences": {},
					"object": "608060405234801561000f575f80fd5b506105a08061001d5f395ff3fe60806040526004361061004d575f3560e01c806312065fe01461015657806312b5834914610180578063518d3b64146101aa578063ce2fc194146101d4578063f3fef3a3146101fe57610152565b3661015257345f803373ffffffffffffffffffffffffffffffffffffffff1673ffffffffffffffffffffffffffffffffffffffff1681526020019081526020015f205f015f82825461009f9190610416565b9250508190555060015f803373ffffffffffffffffffffffffffffffffffffffff1673ffffffffffffffffffffffffffffffffffffffff1681526020019081526020015f206001015f8282546100f59190610416565b92505081905550345f803373ffffffffffffffffffffffffffffffffffffffff1673ffffffffffffffffffffffffffffffffffffffff1681526020019081526020015f206002015f82825461014a9190610416565b925050819055005b5f80fd5b348015610161575f80fd5b5061016a610226565b6040516101779190610458565b60405180910390f35b34801561018b575f80fd5b5061019461026b565b6040516101a19190610458565b60405180910390f35b3480156101b5575f80fd5b506101be610272565b6040516101cb9190610458565b60405180910390f35b3480156101df575f80fd5b506101e86102b8565b6040516101f59190610458565b60405180910390f35b348015610209575f80fd5b50610224600480360381019061021f91906104f9565b6102fe565b005b5f805f3373ffffffffffffffffffffffffffffffffffffffff1673ffffffffffffffffffffffffffffffffffffffff1681526020019081526020015f205f0154905090565b5f47905090565b5f805f3373ffffffffffffffffffffffffffffffffffffffff1673ffffffffffffffffffffffffffffffffffffffff1681526020019081526020015f2060020154905090565b5f805f3373ffffffffffffffffffffffffffffffffffffffff1673ffffffffffffffffffffffffffffffffffffffff1681526020019081526020015f2060010154905090565b805f803373ffffffffffffffffffffffffffffffffffffffff1673ffffffffffffffffffffffffffffffffffffffff1681526020019081526020015f205f0154106103dc57805f803373ffffffffffffffffffffffffffffffffffffffff1673ffffffffffffffffffffffffffffffffffffffff1681526020019081526020015f205f015f8282546103909190610537565b925050819055508173ffffffffffffffffffffffffffffffffffffffff166108fc8290811502906040515f60405180830381858888f193505050501580156103da573d5f803e3d5ffd5b505b5050565b5f819050919050565b7f4e487b71000000000000000000000000000000000000000000000000000000005f52601160045260245ffd5b5f610420826103e0565b915061042b836103e0565b9250828201905080821115610443576104426103e9565b5b92915050565b610452816103e0565b82525050565b5f60208201905061046b5f830184610449565b92915050565b5f80fd5b5f73ffffffffffffffffffffffffffffffffffffffff82169050919050565b5f61049e82610475565b9050919050565b6104ae81610494565b81146104b8575f80fd5b50565b5f813590506104c9816104a5565b92915050565b6104d8816103e0565b81146104e2575f80fd5b50565b5f813590506104f3816104cf565b92915050565b5f806040838503121561050f5761050e610471565b5b5f61051c858286016104bb565b925050602061052d858286016104e5565b9150509250929050565b5f610541826103e0565b915061054c836103e0565b9250828203905081811115610564576105636103e9565b5b9291505056fea2646970667358221220f2046a3a81f62f19583e53f92e312ef27939d49e8c1c1ca559d962086e1b908d64736f6c63430008150033",
					"opcodes": "PUSH1 0x80 PUSH1 0x40 MSTORE CALLVALUE DUP1 ISZERO PUSH2 0xF JUMPI PUSH0 DUP1 REVERT JUMPDEST POP PUSH2 0x5A0 DUP1 PUSH2 0x1D PUSH0 CODECOPY PUSH0 RETURN INVALID PUSH1 0x80 PUSH1 0x40 MSTORE PUSH1 0x4 CALLDATASIZE LT PUSH2 0x4D JUMPI PUSH0 CALLDATALOAD PUSH1 0xE0 SHR DUP1 PUSH4 0x12065FE0 EQ PUSH2 0x156 JUMPI DUP1 PUSH4 0x12B58349 EQ PUSH2 0x180 JUMPI DUP1 PUSH4 0x518D3B64 EQ PUSH2 0x1AA JUMPI DUP1 PUSH4 0xCE2FC194 EQ PUSH2 0x1D4 JUMPI DUP1 PUSH4 0xF3FEF3A3 EQ PUSH2 0x1FE JUMPI PUSH2 0x152 JUMP JUMPDEST CALLDATASIZE PUSH2 0x152 JUMPI CALLVALUE PUSH0 DUP1 CALLER PUSH20 0xFFFFFFFFFFFFFFFFFFFFFFFFFFFFFFFFFFFFFFFF AND PUSH20 0xFFFFFFFFFFFFFFFFFFFFFFFFFFFFFFFFFFFFFFFF AND DUP2 MSTORE PUSH1 0x20 ADD SWAP1 DUP2 MSTORE PUSH1 0x20 ADD PUSH0 KECCAK256 PUSH0 ADD PUSH0 DUP3 DUP3 SLOAD PUSH2 0x9F SWAP2 SWAP1 PUSH2 0x416 JUMP JUMPDEST SWAP3 POP POP DUP2 SWAP1 SSTORE POP PUSH1 0x1 PUSH0 DUP1 CALLER PUSH20 0xFFFFFFFFFFFFFFFFFFFFFFFFFFFFFFFFFFFFFFFF AND PUSH20 0xFFFFFFFFFFFFFFFFFFFFFFFFFFFFFFFFFFFFFFFF AND DUP2 MSTORE PUSH1 0x20 ADD SWAP1 DUP2 MSTORE PUSH1 0x20 ADD PUSH0 KECCAK256 PUSH1 0x1 ADD PUSH0 DUP3 DUP3 SLOAD PUSH2 0xF5 SWAP2 SWAP1 PUSH2 0x416 JUMP JUMPDEST SWAP3 POP POP DUP2 SWAP1 SSTORE POP CALLVALUE PUSH0 DUP1 CALLER PUSH20 0xFFFFFFFFFFFFFFFFFFFFFFFFFFFFFFFFFFFFFFFF AND PUSH20 0xFFFFFFFFFFFFFFFFFFFFFFFFFFFFFFFFFFFFFFFF AND DUP2 MSTORE PUSH1 0x20 ADD SWAP1 DUP2 MSTORE PUSH1 0x20 ADD PUSH0 KECCAK256 PUSH1 0x2 ADD PUSH0 DUP3 DUP3 SLOAD PUSH2 0x14A SWAP2 SWAP1 PUSH2 0x416 JUMP JUMPDEST SWAP3 POP POP DUP2 SWAP1 SSTORE STOP JUMPDEST PUSH0 DUP1 REVERT JUMPDEST CALLVALUE DUP1 ISZERO PUSH2 0x161 JUMPI PUSH0 DUP1 REVERT JUMPDEST POP PUSH2 0x16A PUSH2 0x226 JUMP JUMPDEST PUSH1 0x40 MLOAD PUSH2 0x177 SWAP2 SWAP1 PUSH2 0x458 JUMP JUMPDEST PUSH1 0x40 MLOAD DUP1 SWAP2 SUB SWAP1 RETURN JUMPDEST CALLVALUE DUP1 ISZERO PUSH2 0x18B JUMPI PUSH0 DUP1 REVERT JUMPDEST POP PUSH2 0x194 PUSH2 0x26B JUMP JUMPDEST PUSH1 0x40 MLOAD PUSH2 0x1A1 SWAP2 SWAP1 PUSH2 0x458 JUMP JUMPDEST PUSH1 0x40 MLOAD DUP1 SWAP2 SUB SWAP1 RETURN JUMPDEST CALLVALUE DUP1 ISZERO PUSH2 0x1B5 JUMPI PUSH0 DUP1 REVERT JUMPDEST POP PUSH2 0x1BE PUSH2 0x272 JUMP JUMPDEST PUSH1 0x40 MLOAD PUSH2 0x1CB SWAP2 SWAP1 PUSH2 0x458 JUMP JUMPDEST PUSH1 0x40 MLOAD DUP1 SWAP2 SUB SWAP1 RETURN JUMPDEST CALLVALUE DUP1 ISZERO PUSH2 0x1DF JUMPI PUSH0 DUP1 REVERT JUMPDEST POP PUSH2 0x1E8 PUSH2 0x2B8 JUMP JUMPDEST PUSH1 0x40 MLOAD PUSH2 0x1F5 SWAP2 SWAP1 PUSH2 0x458 JUMP JUMPDEST PUSH1 0x40 MLOAD DUP1 SWAP2 SUB SWAP1 RETURN JUMPDEST CALLVALUE DUP1 ISZERO PUSH2 0x209 JUMPI PUSH0 DUP1 REVERT JUMPDEST POP PUSH2 0x224 PUSH1 0x4 DUP1 CALLDATASIZE SUB DUP2 ADD SWAP1 PUSH2 0x21F SWAP2 SWAP1 PUSH2 0x4F9 JUMP JUMPDEST PUSH2 0x2FE JUMP JUMPDEST STOP JUMPDEST PUSH0 DUP1 PUSH0 CALLER PUSH20 0xFFFFFFFFFFFFFFFFFFFFFFFFFFFFFFFFFFFFFFFF AND PUSH20 0xFFFFFFFFFFFFFFFFFFFFFFFFFFFFFFFFFFFFFFFF AND DUP2 MSTORE PUSH1 0x20 ADD SWAP1 DUP2 MSTORE PUSH1 0x20 ADD PUSH0 KECCAK256 PUSH0 ADD SLOAD SWAP1 POP SWAP1 JUMP JUMPDEST PUSH0 SELFBALANCE SWAP1 POP SWAP1 JUMP JUMPDEST PUSH0 DUP1 PUSH0 CALLER PUSH20 0xFFFFFFFFFFFFFFFFFFFFFFFFFFFFFFFFFFFFFFFF AND PUSH20 0xFFFFFFFFFFFFFFFFFFFFFFFFFFFFFFFFFFFFFFFF AND DUP2 MSTORE PUSH1 0x20 ADD SWAP1 DUP2 MSTORE PUSH1 0x20 ADD PUSH0 KECCAK256 PUSH1 0x2 ADD SLOAD SWAP1 POP SWAP1 JUMP JUMPDEST PUSH0 DUP1 PUSH0 CALLER PUSH20 0xFFFFFFFFFFFFFFFFFFFFFFFFFFFFFFFFFFFFFFFF AND PUSH20 0xFFFFFFFFFFFFFFFFFFFFFFFFFFFFFFFFFFFFFFFF AND DUP2 MSTORE PUSH1 0x20 ADD SWAP1 DUP2 MSTORE PUSH1 0x20 ADD PUSH0 KECCAK256 PUSH1 0x1 ADD SLOAD SWAP1 POP SWAP1 JUMP JUMPDEST DUP1 PUSH0 DUP1 CALLER PUSH20 0xFFFFFFFFFFFFFFFFFFFFFFFFFFFFFFFFFFFFFFFF AND PUSH20 0xFFFFFFFFFFFFFFFFFFFFFFFFFFFFFFFFFFFFFFFF AND DUP2 MSTORE PUSH1 0x20 ADD SWAP1 DUP2 MSTORE PUSH1 0x20 ADD PUSH0 KECCAK256 PUSH0 ADD SLOAD LT PUSH2 0x3DC JUMPI DUP1 PUSH0 DUP1 CALLER PUSH20 0xFFFFFFFFFFFFFFFFFFFFFFFFFFFFFFFFFFFFFFFF AND PUSH20 0xFFFFFFFFFFFFFFFFFFFFFFFFFFFFFFFFFFFFFFFF AND DUP2 MSTORE PUSH1 0x20 ADD SWAP1 DUP2 MSTORE PUSH1 0x20 ADD PUSH0 KECCAK256 PUSH0 ADD PUSH0 DUP3 DUP3 SLOAD PUSH2 0x390 SWAP2 SWAP1 PUSH2 0x537 JUMP JUMPDEST SWAP3 POP POP DUP2 SWAP1 SSTORE POP DUP2 PUSH20 0xFFFFFFFFFFFFFFFFFFFFFFFFFFFFFFFFFFFFFFFF AND PUSH2 0x8FC DUP3 SWAP1 DUP2 ISZERO MUL SWAP1 PUSH1 0x40 MLOAD PUSH0 PUSH1 0x40 MLOAD DUP1 DUP4 SUB DUP2 DUP6 DUP9 DUP9 CALL SWAP4 POP POP POP POP ISZERO DUP1 ISZERO PUSH2 0x3DA JUMPI RETURNDATASIZE PUSH0 DUP1 RETURNDATACOPY RETURNDATASIZE PUSH0 REVERT JUMPDEST POP JUMPDEST POP POP JUMP JUMPDEST PUSH0 DUP2 SWAP1 POP SWAP2 SWAP1 POP JUMP JUMPDEST PUSH32 0x4E487B7100000000000000000000000000000000000000000000000000000000 PUSH0 MSTORE PUSH1 0x11 PUSH1 0x4 MSTORE PUSH1 0x24 PUSH0 REVERT JUMPDEST PUSH0 PUSH2 0x420 DUP3 PUSH2 0x3E0 JUMP JUMPDEST SWAP2 POP PUSH2 0x42B DUP4 PUSH2 0x3E0 JUMP JUMPDEST SWAP3 POP DUP3 DUP3 ADD SWAP1 POP DUP1 DUP3 GT ISZERO PUSH2 0x443 JUMPI PUSH2 0x442 PUSH2 0x3E9 JUMP JUMPDEST JUMPDEST SWAP3 SWAP2 POP POP JUMP JUMPDEST PUSH2 0x452 DUP2 PUSH2 0x3E0 JUMP JUMPDEST DUP3 MSTORE POP POP JUMP JUMPDEST PUSH0 PUSH1 0x20 DUP3 ADD SWAP1 POP PUSH2 0x46B PUSH0 DUP4 ADD DUP5 PUSH2 0x449 JUMP JUMPDEST SWAP3 SWAP2 POP POP JUMP JUMPDEST PUSH0 DUP1 REVERT JUMPDEST PUSH0 PUSH20 0xFFFFFFFFFFFFFFFFFFFFFFFFFFFFFFFFFFFFFFFF DUP3 AND SWAP1 POP SWAP2 SWAP1 POP JUMP JUMPDEST PUSH0 PUSH2 0x49E DUP3 PUSH2 0x475 JUMP JUMPDEST SWAP1 POP SWAP2 SWAP1 POP JUMP JUMPDEST PUSH2 0x4AE DUP2 PUSH2 0x494 JUMP JUMPDEST DUP2 EQ PUSH2 0x4B8 JUMPI PUSH0 DUP1 REVERT JUMPDEST POP JUMP JUMPDEST PUSH0 DUP2 CALLDATALOAD SWAP1 POP PUSH2 0x4C9 DUP2 PUSH2 0x4A5 JUMP JUMPDEST SWAP3 SWAP2 POP POP JUMP JUMPDEST PUSH2 0x4D8 DUP2 PUSH2 0x3E0 JUMP JUMPDEST DUP2 EQ PUSH2 0x4E2 JUMPI PUSH0 DUP1 REVERT JUMPDEST POP JUMP JUMPDEST PUSH0 DUP2 CALLDATALOAD SWAP1 POP PUSH2 0x4F3 DUP2 PUSH2 0x4CF JUMP JUMPDEST SWAP3 SWAP2 POP POP JUMP JUMPDEST PUSH0 DUP1 PUSH1 0x40 DUP4 DUP6 SUB SLT ISZERO PUSH2 0x50F JUMPI PUSH2 0x50E PUSH2 0x471 JUMP JUMPDEST JUMPDEST PUSH0 PUSH2 0x51C DUP6 DUP3 DUP7 ADD PUSH2 0x4BB JUMP JUMPDEST SWAP3 POP POP PUSH1 0x20 PUSH2 0x52D DUP6 DUP3 DUP7 ADD PUSH2 0x4E5 JUMP JUMPDEST SWAP2 POP POP SWAP3 POP SWAP3 SWAP1 POP JUMP JUMPDEST PUSH0 PUSH2 0x541 DUP3 PUSH2 0x3E0 JUMP JUMPDEST SWAP2 POP PUSH2 0x54C DUP4 PUSH2 0x3E0 JUMP JUMPDEST SWAP3 POP DUP3 DUP3 SUB SWAP1 POP DUP2 DUP2 GT ISZERO PUSH2 0x564 JUMPI PUSH2 0x563 PUSH2 0x3E9 JUMP JUMPDEST JUMPDEST SWAP3 SWAP2 POP POP JUMP INVALID LOG2 PUSH5 0x6970667358 0x22 SLT KECCAK256 CALLCODE DIV PUSH11 0x3A81F62F19583E53F92E31 0x2E CALLCODE PUSH26 0x39D49E8C1C1CA559D962086E1B908D64736F6C63430008150033 "
				},
				"gasEstimates": {
					"creation": {
						"codeDepositCost": "288000",
						"executionCost": "322",
						"totalCost": "288322"
					},
					"external": {
						"getBalance()": "2502",
						"getTimesSent()": "2569",
						"getTotalBalance()": "334",
						"getTotalSent()": "2547",
						"withdraw(address,uint256)": "infinite"
					}
				},
				"methodIdentifiers": {
					"getBalance()": "12065fe0",
					"getTimesSent()": "ce2fc194",
					"getTotalBalance()": "12b58349",
					"getTotalSent()": "518d3b64",
					"withdraw(address,uint256)": "f3fef3a3"
				}
			},
			"storageLayout": {
				"storage": [
					{
						"astId": 13,
						"contract": "contracts/FirstTransfer.sol:FirstApproach",
						"label": "Wallets",
						"offset": 0,
						"slot": "0",
						"type": "t_mapping(t_address,t_struct(wallet)8_storage)"
					}
				],
				"types": {
					"t_address": {
						"encoding": "inplace",
						"label": "address",
						"numberOfBytes": "20"
					},
					"t_mapping(t_address,t_struct(wallet)8_storage)": {
						"encoding": "mapping",
						"key": "t_address",
						"label": "mapping(address => struct FirstApproach.wallet)",
						"numberOfBytes": "32",
						"value": "t_struct(wallet)8_storage"
					},
					"t_struct(wallet)8_storage": {
						"encoding": "inplace",
						"label": "struct FirstApproach.wallet",
						"members": [
							{
								"astId": 3,
								"contract": "contracts/FirstTransfer.sol:FirstApproach",
								"label": "balance",
								"offset": 0,
								"slot": "0",
								"type": "t_uint256"
							},
							{
								"astId": 5,
								"contract": "contracts/FirstTransfer.sol:FirstApproach",
								"label": "timesSent",
								"offset": 0,
								"slot": "1",
								"type": "t_uint256"
							},
							{
								"astId": 7,
								"contract": "contracts/FirstTransfer.sol:FirstApproach",
								"label": "totalSent",
								"offset": 0,
								"slot": "2",
								"type": "t_uint256"
							}
						],
						"numberOfBytes": "96"
					},
					"t_uint256": {
						"encoding": "inplace",
						"label": "uint256",
						"numberOfBytes": "32"
					}
				}
			},
			"userdoc": {
				"kind": "user",
				"methods": {},
				"version": 1
			}
		}
	}
}